:100000000C9450000C945A000C945A000C945A0012
:100010000C945A000C945A000C945A000C945A00F8
:100020000C945A000C945A000C945A000C945A00E8
:100030000C945A000C945A000C945A000C945A00D8
:100040000C945A000C945A000C945A000C945A00C8
:100050000C945A000C945A000C945A000C945A00B8
:100060000C945A000C945A000C945A000C945A00A8
:100070000C945A000C945A000C945A000C945A0098
:100080000C945A000C945A000C945A000C945A0088
:100090000C945A000C945A000C945A000C945A0078
:1000A00011241FBECFEFCDBFDFE3DEBF0E940D04E2
:1000B0000C9476070C9400001092E205E0E4F4E062
:1000C00081E0818382E08283E0E2F8E08AE09AE1E5
:1000D0008087918783E0878380EC86830895909161
:1000E000240895FFFCCF809322080895CF93DF93D7
:1000F000EC018881811103C0DF91CF910895219691
:100100000E946F00F6CF8091240887FFFCCF80917A
:10011000200808950F931F93CF93DF930F92CDB7CD
:10012000DEB7082F998386E60E94990181110EC0DF
:1001300088E69FE40E9476000E94DF018FEF9FEF28
:100140000F90DF91CF911F910F91089589810E94A7
:100150005702811103C08BE79FE4ECCF802F0E94F0
:100160005702811103C08DE89FE4E4CF87E60E9427
:100170009901811103C08EE99FE4DCCF0E946B02DC
:10018000082F0E947F02902FDBCF0F931F93CF93F6
:10019000DF93CDB7DEB76E97CDBFDEBF182F092F27
:1001A0000E948A009F938F930F931F9380EB9FE48D
:1001B0009F938F931F928EE18F938E010F5F1F4F3E
:1001C0001F930F930E947004C8010E947600CDBF58
:1001D000DEBF6E96CDBFDEBFDF91CF911F910F9135
:1001E0000895CF93DF930F92CDB7DEB7898380ED6B
:1001F0000E949901811579F089810E945702811529
:1002000051F081ED0E949901811529F00F90DF9145
:10021000CF910C947F020E94DF018FEF0F90DF914E
:10022000CF9108950F931F93CF93DF93CDB7DEB790
:10023000A897CDBFDEBF162F072F0E94F1001F9297
:100240008F930F931F9385EC9FE49F938F931F923F
:1002500088E28F938E010F5F1F4F1F930F930E94B1
:100260007004C8010E947600CDBFDEBFA896CDBF46
:10027000DEBFDF91CF911F910F910895E0E0F4E090
:1002800088E0828B838BE0EAF8E084E1868381E07A
:1002900083838583089581E08093A50889EF90E0AA
:1002A0000197F1F700C0000008950F931F93CF93BB
:1002B000DF93CDB7DEB7E297CDBFDEBF2091A608B2
:1002C0008091A5081F922F931F928F9382ED9FE438
:1002D0009F938F931F9282E38F938E010F5F1F4F27
:1002E0001F930F930E947004C8010E9476008091B2
:1002F000A508182F13708FEE9FE40E947600CDBFE3
:10030000DEBF8BEF9FE4113018F061F485E090E5DB
:100310000E947600E296CDBFDEBFDF91CF911F91A4
:100320000F9108958CE090E5123091F384E190E50F
:10033000EFCF0F931F93CF93DF93CDB7DEB7E29745
:10034000CDBFDEBF182F8091A50883FF06C08BE1CB
:1003500090E50E9476000E944B011093A70880E56B
:1003600093EC2091A508203420F50197D1F78091D6
:10037000A5081F928F9382E390E59F938F931F921E
:1003800082E38F938E010F5F1F4F1F930F930E9485
:100390007004C8010E9476000E944B01CDBFDEBFF1
:1003A00080E0E296CDBFDEBFDF91CF911F910F912C
:1003B00008958091A508829583958170F2CF83E09E
:1003C0008093A40882E48A95F1F700C00895CF9243
:1003D000DF92EF92FF920F931F93CF93DF93CDB7EE
:1003E000DEB76E97CDBFDEBF8DE490E50E9476004C
:1003F00081E0E82EF12C0EE110E06E012FEFC21A21
:10040000D20A8E2D880F0E949901811591F0FF92DA
:10041000EF9285E690E59F938F931F920F93DF9263
:10042000CF920E947004C6010E9476001F5FCDBF6C
:10043000DEBF0E94DF018FE097E20197F1F700C075
:1004400000009FEFE91AF90A20E8E216F104C9F664
:10045000111116C08EE790E50E9476000E944B01B4
:100460008CEA90E50E9476006E96CDBFDEBFDF91EC
:10047000CF911F910F91FF90EF90DF90CF90089553
:100480001F921F9386E990E59F938F931F928EE1B1
:100490008F937E018FEFE81AF80AFF92EF920E9485
:1004A0007004C7010E947600CDBFDEBFD7CF809316
:1004B000A80820E533EC9091A508892F807496FD5B
:1004C00004C021503040B9F708958091A508829565
:1004D00083958170089580E593EC2091A50827FD10
:1004E00008C00197D1F783EC90E50E9476008FEF6A
:1004F00008958091A80892E09093A40808950F931E
:100500001F93CF93DF93CDB7DEB7EC97CDBFDEBFA0
:1005100080E593EC2091A50827FD24C00197D1F731
:100520002091A5088091A508220F330B37FB99274E
:1005300090F91F929F931F928F9384EE90E59F9363
:100540008F931F928CE38F938E010F5F1F4F1F932A
:100550000F930E947004C8010E947600CDBFDEBFD9
:100560008FEF05C08091A80897E09093A408EC96BF
:10057000CDBFDEBFDF91CF911F910F91089580ED28
:100580000E9499018BE60E94570280E00E94570268
:100590000E94DF012FE78AE196E0215080409040E1
:1005A000E1F700C00000089580ED0E94990185E701
:1005B0000E94570281ED0E9499010E947F02982FAC
:1005C00081E0983609F080E00895EF92FF920F9352
:1005D0001F93CF93DF93CDB7DEB72C97CDBFDEBF90
:1005E0008F83988769877A874B875C8780ED0E9425
:1005F00099018BE30E94570281ED0E9499018E01BF
:100600000F5F1F4F7E0186E0E80EF11C0E946B0217
:10061000F80181938F01EE15FF05C1F70E947F025B
:1006200029813A81322723273227EF81F8852083D9
:1006300031832B813C81322723273227E985FA85B4
:10064000208331832D81EB85FC85808321832C964B
:10065000CDBFDEBFDF91CF911F910F91FF90EF9043
:100660000895EF92FF920F931F93CF93DF93CDB72F
:10067000DEB72C97CDBFDEBF8F83988769877A87D7
:100680004B875C8780ED0E94990183E40E945702AA
:1006900081ED0E9499018E010F5F1F4F7E0186E060
:1006A000E80EF11C0E946B02F80181938F01EE1598
:1006B000FF05C1F70E947F0229813A813227232753
:1006C0003227EF81F885208331832B813C813227CB
:1006D00023273227E985FA85208331832D81EB8515
:1006E000FC85808321832C96CDBFDEBFDF91CF9127
:1006F0001F910F91FF90EF900895FF920F931F931A
:10070000CF93DF93CDB7DEB7C854D109CDBFDEBFDD
:100710008BE091E50E9476000E94D402811509F4D5
:100720006FC084E291E50E947600AE014D5B5F4FA1
:10073000BE016B5B7F4FCE01895B9F4F0E94E5023C
:1007400025968FAD25978F9324968FAD24978F9301
:1007500027968FAD27978F9326968FAD26978F93E9
:1007600029968FAD29978F9328968FAD28978F93D1
:100770008BE491E59F938F931F928CE3F82EFF9269
:100780008E010F5F1F4F1F930F930E947004C801CB
:100790000E947600AE01435C5F4FBE01615C7F4FFB
:1007A000CE018F5B9F4F0E9431038EAD8F938DAD35
:1007B0008F9321968FAD21978F938FAD8F93239633
:1007C0008FAD23978F9322968FAD22978F9383E6D9
:1007D00091E59F938F931F92FF921F930F930E9417
:1007E0007004C8010E947600CDBFDEBFC85BDF4F3A
:1007F000CDBFDEBFDF91CF911F910F91FF90089584
:100800008BE791E5C85BDF4FCDBFDEBFDF91CF91B6
:100810001F910F91FF900C94760088ED90E084BFBB
:100820009093600084BF909361002FE78AE196E087
:10083000215080409040E1F700C0000080E88093A4
:1008400001040E945C000E943E0180EF9EE40E9431
:1008500076000E9455010E94E7010E94BF020E949B
:100860007D032FE78AE196E0215080409040E1F738
:1008700000C00000C0E8C09307040E944B0186E05E
:100880009FE40E9476008BE19FE40E94760087E05F
:1008900094E20E94C50087E29FE40E94760080E017
:1008A00094E00E94C50086E39FE40E9476006AE41B
:1008B0007FE485E70E94120163E57FE48BE60E94F6
:1008C00012016EE57FE48BE30E9412012FEF81E1BC
:1008D0009AE7215080409040E1F700C00000CBCF64
:1008E000AEE0B0E0E6E7F4E00C94550786E08C83D8
:1008F0002B893C8929833A838D899E89813030E810
:10090000930710F080E090E801978D839E83AE01FD
:10091000475E5F4F6F89788DCE0101960E94A304D8
:100920004D815E8157FD0BC0EF81F8854E175F0743
:100930000CF4FA012B893C89E20FF31F10822E96EA
:10094000E2E00C946E07ACE0B0E0E9EAF4E00C946D
:1009500048075C016B017A01FC01168217828381D2
:1009600081FFD3C12AE0522EF5012381F60123FD38
:10097000859123FF81916F01811509F42CC1853286
:1009800039F423FD959123FF91916F01953229F45C
:10099000B50190E00E949E06E7CF30E0712C00E0A8
:1009A00010E0103210F59B32C9F050F49032B9F0DB
:1009B0009332C9F09E3261F516FD0DC1106405C079
:1009C0009D3279F0903399F41160F60123FD9591F1
:1009D00023FF91916F019111E4CF23C01260146045
:1009E000F4CF1860F2CF1061F0CF17FD1AC080ED80
:1009F000890F8A30F8F616FF05C0759C800D11240A
:100A0000782EE3CF059D800D1124082F1062DDCFD5
:100A10009C3611F41068D9CF9C3409F440C0983644
:100A2000A1F2892F8F7D85548330D8F1933609F454
:100A30005FC0933709F46AC0933509F476C09436E1
:100A400019F0993609F0A2C0F70117FF98C061911B
:100A50007191819191917F011F7697FF03C00E9450
:100A60003D0710682AE030E04E014FEF841A940AE7
:100A7000A4010E94DF06682E681816FFD2C0812FDD
:100A80008E7F671408F0CCC014FF1DC112FD11C188
:100A90001E7E972C812F867809F4CEC00FC131E0DD
:100AA00094CF311509F1F8E0EF0EF11C8FE3898343
:100AB00091E0692E712C4E018FEF881A980A1F77EA
:100AC00013FD04C06016710408F43FC06114710482
:100AD00009F042C0011509F447CFB50180E290E06A
:100AE0000E949E060150F6CF44E0E40EF11CDECFDA
:100AF000F70180818983F2E0EF0EF11C81E0682E1E
:100B0000712C4E014FEF841A940AD9CFF7018190CE
:100B100091907F01672D70E016FD02C06FEF7FEFAF
:100B2000C4010E9493063C01CACFF70181909190C5
:100B30007F01672D70E016FD02C06FEF7FEFC401EB
:100B40000E9488063C011068BBCFB50180E290E0AE
:100B50000E949E060150B6CFF40117FD859117FF44
:100B600081914F01B50190E00E949E0681E0011144
:100B700001C080E0081BF1E06F1A7108A7CF6191F6
:100B80007191872F880F880B982F65CF9537C9F4FF
:100B90001F7E1C872AE030E0FC85F7FF3BC0F70191
:100BA00061917191819191917F014E014FEF841A72
:100BB000940AA4010E94DF06682E68181C851F771E
:100BC0005CCF812F897F8C87903799F058F49835C6
:100BD000B9F09F36E1F0F501868197812C96EFE020
:100BE0000C9461079837B9F714FD06C020E130E096
:100BF000D3CF9C8590619C87EC85E460EC87F6CF31
:100C000014FF02C016601C8720E132E0C5CF28E047
:100C100030E0C2CFF7016191719180E090E0C4CFE4
:100C2000182F962C14FF36CFFE01E60DF11D8081A2
:100C3000803309F041C0197E13FD0EC010FF4FC074
:100C4000762C901618F4700E7918902E802F891932
:100C5000091508F480E0980E901608F042C00919B2
:100C600014FF41C0B50180E390E00E949E0612FF90
:100C700009C088E590E011FD02C088E790E0B50169
:100C80000E949E066714D0F14E018FEF881A980AD1
:100C90006A94FE013296E60DF11D3F01F301829147
:100CA0003F01B50190E00E949E0668147904B1F7F7
:100CB00011CF972C182FB8CF12FD02C09394BCCF40
:100CC00093949394B9CF972C182FE4CEB50180E27A
:100CD00090E00E949E0683948016C0F3B7CF892CC3
:100CE000FBCF00E0BDCF812F867861F280E211FD5D
:100CF0008BE217FD8DE2B50190E0C2CFB50180E334
:100D000090E00E949E067A94BDCF8FEF9FEF66CF52
:100D1000FC010590615070400110D8F780959095C6
:100D20008E0F9F1F0895FC016150704001900110CB
:100D3000D8F7809590958E0F9F1F0895A3E0B0E09F
:100D4000E4EAF6E00C945407182F99836A837B83B6
:100D5000DB0113968C9181FD09C01FEFBFEFB983B2
:100D6000812F99812396E3E00C946D0782FF1BC0CD
:100D7000EA81FB8126813781848195812817390793
:100D800054F40190F081E02DCF010196AA81BB813E
:100D90008D939D931083EA81FB81868197810196D3
:100DA00086839783DDCFAA81BB811896ED91FD9153
:100DB0001A97BD01812F0995892B69F3CECFFA01CE
:100DC000AA27283051F1203181F1E8946F936E7F8A
:100DD0006E5F7F4F8F4F9F4FAF4FB1E03ED0B4E07B
:100DE0003CD0670F781F891F9A1FA11D680F791FBC
:100DF0008A1F911DA11D6A0F711D811D911DA11DCD
:100E000020D009F468943F912AE0269F11243019DC
:100E1000305D3193DEF6CF010895462F4770405D77
:100E20004193B3E00FD0C9F7F6CF462F4F70405D26
:100E30004A3318F0495D31FD4052419302D0A9F781
:100E4000EACFB4E0A6959795879577956795BA957B
:100E5000C9F700976105710508959B01AC010A2E41
:100E600006945795479537952795BA95C9F7620F18
:100E7000731F841F951FA01D0895909580957095F0
:100E800061957F4F8F4F9F4F08952F923F924F92C2
:100E90005F926F927F928F929F92AF92BF92CF920A
:100EA000DF92EF92FF920F931F93CF93DF93CDB713
:100EB000DEB7CA1BDB0BCDBFDEBF09942A88398899
:100EC00048885F846E847D848C849B84AA84B984E2
:100ED000C884DF80EE80FD800C811B81AA81B981EE
:100EE000CE0FD11DCDBFDEBFED010895F894FFCF29
:100EF0004D4C5839303634302054455354205354D7
:100F00004152540D0A000D0A3D3D3D204D4C5839CB
:100F100030363430203D3D3D0D0A0044657669632E
:100F2000652049443A200052414D20706978656C33
:100F30005B305D3A20000D0A3D3D3D204D50553659
:100F4000303530203D3D3D0D0A0057484F5F414D43
:100F50005F49005057525F4D474D545F3100414348
:100F600043454C5F585F48005354415254205752F8
:100F7000495445204641494C0D0A005752495445B1
:100F80002048494748204641494C0D0A00575249DC
:100F90005445204C4F57204641494C0D0A005354AC
:100FA0004152542052454144204641494C0D0A00CB
:100FB000526567203078253034583A203078253013
:100FC00034580D0A0025733A203078253032580DF8
:100FD0000A004D5354415455533A2030782530324D
:100FE000582C204D424155443A2025640D0A0042B8
:100FF00075732053746174653A2000554E4B4E4F03
:10100000574E0D0A0049444C450D0A004F574E45B6
:10101000520D0A00425553590D0A00427573206162
:1010200072626974726174696F6E206C6F73740D93
:101030000A00537461727420544F2C204D53544154
:101040005455533D3078253032580D0A000D0A535F
:1010500063616E6E696E6720493243206275732E3C
:101060002E2E0D0A00466F756E64206465766963E6
:1010700065206174203078253032580D0A004E6F9B
:1010800020493243206465766963657320666F7515
:101090006E64210D0A00546F74616C3A202564203F
:1010A0006465766963652873290D0A0042757320AB
:1010B0007265736574206166746572207363616E16
:1010C0000D0A00526561642041434B2054696D65EF
:1010D0006F75742028524946206E6F7420736574B2
:1010E000290D0A0052656164204E41434B20544F44
:1010F0002C204D5354415455533D307825303258AF
:101100002C205249463D25640D0A000D0A3D3D3D07
:10111000204D5055363035302054657374203D3D98
:101120003D0D0A004D50553630353020636F6E6EE0
:10113000656374656421202857484F5F414D5F49BE
:10114000203D2030783638290D0A00416363656CF4
:101150003A20583D256420593D2564205A3D256498
:101160000D0A004779726F3A2020583D25642059B6
:101170003D2564205A3D25640D0A004D50553630FA
:101180003530204E4F5420464F554E44210D0A0015
:00000001FF
